:020000020000FC
:020000009BC0A3
:020004003EC1FB
:0200080084C1B1
:0200100058C1D5
:1000280039C100B30370003089F0033079F01395BB
:10003800183C19F0E1300CF40895E1E0D395D9317A
:1000480009F00895D0E00130D1F0C9F5E0E0D0E042
:1000580010E008951030E9F700B30370013019F08B
:10006800023039F008950E94430011E0D0E0E0E04A
:1000780008950E94630011E0D0E0E0E00895A13007
:1000880031F0A23051F0A43071F0A83091F059301D
:1000980011F450E0089553950895693011F460E023
:1000A800089563950895793011F470E00895739573
:1000B8000895893011F480E0089583950895A1305A
:1000C80031F0A23051F0A43071F0A83091F05030E6
:1000D80011F459E008955A950895603011F469E0D3
:1000E80008956A950895703011F479E008957A9525
:1000F8000895803011F489E008958A95089500E004
:100108000FBB00E00EBBE09ACDB300E00FBB01E0EF
:100118000EBBE09A2DB300E00FBB02E00EBBE09AE5
:100128003DB300E00FBB03E00EBBE09A4DB308956A
:1001380008E00EBF0FE50DBF0FEF0ABB00270BBB92
:100148000FEF04BB05BB00EF01BB002702BB90E02B
:10015800A1E010E0D0E050E060E070E080E0F0E086
:100168000E9483000FE005BF00EC0BBF0ABF0CE044
:1001780003BF0BE90CBF0FE005BD0DE403BD02E8AA
:1001880009BF7894E23071F19F3F89F0B1E0052F03
:100198000E94FE00BB0F062F0E94FE00BB0F072F18
:1001A8000E94FE00BB0F082F0E94FE00EBCF59E013
:1001B80069E079E089E000E80BBBE4CF5C1749F41B
:1001C800621739F4731729F4841719F40FEF902F75
:1001D80008959395933059F000E40BBBE2E010E0EA
:1001E800D0E0089500E40BBB9F3F09F3CBCF00ECB0
:1001F8000BBBFFCFBA1729F4F9311CF400270BBB4E
:1002080008950E940F010B2F0BBB00000000000097
:1002180000270BBB0895003091F0013099F00230AF
:10022800A1F00330A9F00430B1F00530B9F0063080
:10023800C1F00730C9F00830D1F00930D9F00FE328
:1002480005BB089506E005BB08950BE505BB0895B9
:100258000FE405BB089506E605BB08950DE605BB4A
:1002680008950DE705BB089507E005BB08950FE75E
:1002780005BB08950FE605BB08950F930FB70F93BD
:10028800073624F407E6A13009F0A6950F910FBFB1
:100298000F9118950F930FB70F930B2F0F93E23011
:1002A80031F09F3F21F0F395F23308F0F0E00F9121
:1002B800B02F0F910FBF0F9118950F930FB70F9392
:1002C8000B2F0F93E23049F09F3F39F0E03011F4E3
:1002D8000E942E000E94150012C01395143679F45E
:1002E80010E0D395D43159F400270BBBA1E0B1E05D
:1002F80050E060E070E080E010E0D0E0E0E00F91D6
:10030800B02F0F910FBF0F9118950F930FB70F9341
:10031800A83029F0AA0F0F910FBF0F9118950E94CE
:04032800E200F9CF27
:00000001FF
