:020000020000FC
:020000002FC00F
:0200040037C102
:020008003EC1F7
:0200400029C1D4
:0200100024C109
:02002800F1C025
:1000600008E00EBF0FE50DBF0FED0ABB00270BBB6D
:100070000FEF07BB002708BB0FEF04BB05BB00E970
:1000800001BB002702BB10E020E031E040E050E07F
:1000900061E071E082E0032F0E94D000902F042FD6
:1000A0000E94D000A02F052F0E94D000B02F0FE09B
:1000B00005BF00EC0BBF0ABF0DE003BF0DE40CBF92
:1000C0000FE005BD0DE403BD02E809BF05E607B971
:1000D0000EE806B9369A7894203071F4032F0E9406
:1000E000BC000F7D0BBB042F0E94BC0008BB052F7A
:1000F0000E94BC0005BBF0CF04E705BB08E00BBBCA
:1001000000270BBB07EF05BB04E00BBB00270BBBB5
:10011000123314F70E94970002E00BBB00270BBBC1
:100120000E94A30001E00BBB00270BBBD5CF6030C2
:1001300021F0062F0078003819F0002705BB08953C
:1001400000E405BB0895623841F0613849F0603041
:1001500051F0613059F0623061F00BE505BB089554
:1001600006E005BB08950FE305BB089506E005BB57
:1001700008950BE505BB0895003041F0013041F0D2
:10018000023041F0033041F0043041F007E00895BF
:1001900001E0089502E0089503E0089504E0089561
:1001A000003041F0013041F0023041F0033041F0C5
:1001B000043041F004E6089502E3089501E2089551
:1001C00009E1089504E10895043011F003950895BC
:1001D00000E00895003011F00A95089504E00895B4
:1001E000603099F0C62FC078C03839F0C62FC030C3
:1001F00061F0CA950E94E400FACFC62FCF77C030D5
:1002000021F0CA950E94EA00FACF08950F930FB724
:100210000F939A95AA95BA95903039F4032F0E94BE
:10022000F000302F0E94D000902FA03039F4042F1E
:100230000E94E400402F0E94D000A02FB03049F46B
:10024000052F0E94E4000E94E400502F0E94D0007D
:10025000B02F0F910FBF0F9118950F930FB70F93FA
:10026000203021F01395143608F010E00F910FBFE5
:100270000F9118950F930FB70F9301E020270F915F
:100280000FBF0F9118950F930FB70F930F910FBFDB
:100290000F9118950F930FB70F9305B1033338F0F3
:1002A000063638F0093938F00C3C38F008C062E8FE
:1002B00007C061E805C060E003C061E001C062E022
:0A02C000369A0F910FBF0F911895A9
:00000001FF
