:020000020000FC
:100000000C9434000C94C8000C94D300E1ECD5E6B9
:100010000000DA950000E1F7E395D1F70000000059
:1000200000000000089549E10E9406004A95E1F7AA
:100030000895E199FECF44274FBB4EBBE09A8DB3A4
:10004000813029F0823019F0833009F081E0089581
:10005000E199FECF44274FBB4EBB8DBB4FB7F89401
:10006000E29AE19A4FBF089548E04EBF4FE54DBF79
:10007000442744BB45BB43E741BB442742BB4FEF4A
:100080004ABB47BB61E7A0E070E00E9419000E94F4
:10009000B0000E94B5000E94BF000FE005BF00EC59
:1000A0000BBF0ABF789440B34078403009F4AA27C8
:1000B000A13041F040B34078403821F40E946900FB
:1000C000A1E0F1CF813039F1823069F1833099F1CB
:1000D000EACF112740B34078403881F443B3403031
:1000E000C1F30E94130043B3403041F0142F40B3DA
:1000F0004078403809F4F5CF43B3142F612F0E94A4
:10010000BF0008959BBB38BB0E94130041E07427D9
:100110000E94B500C8CF703019F49FEF30E0F2CFE5
:1001200090E03FEFEFCF703019F49AEA35E5EACF6F
:1001300095E53AEAE7CF703019F4962F322FE2CFE7
:10014000922F362FDFCF8395843009F481E00E940F
:10015000B00008958A9509F483E00E94B0000895E4
:1001600042B34C7F482B42BB089542B34F7E072FCA
:10017000000F000F000F000F402B42BB0895462FC9
:100180004F7721F040E8262F2427089520E0089596
:100190004F934FB74F930E94A3000E9428004F91A6
:1001A0004FBF4F9118954F934FB74F930E94AA009E
:0C01B0000E9428004F914FBF4F911895FE
:00000001FF
