:020000020000FC
:020000001FC01F
:020004005CC0DE
:020008006DC0C9
:02000C00189545
:02001000189541
:0200140018953D
:02001800189539
:02001C00189535
:02002000189531
:0200240018952D
:020028008DC089
:1000400008E00EBF0FE50DBF0FEF04BB05BB0FE0CF
:100050000ABB00270BBB002701BB0FEF02BB002729
:1000600000936000009361000093620000936300BE
:10007000009364000093650000936600009369009C
:1000800000936A0000936B0000936C0000936D0076
:1000900000936E0000936F000093700001E00093E6
:1000A0006700009368000AE005BF00EC0ABF01EC9E
:1000B0000BBF03E802BF03E003BF7894FFCF0F93A9
:1000C0001F930FB70F930091620011E00127009377
:1000D0006200002700936300DFD00F910FBF1F91D4
:1000E0000F9118950F931F93CF93DF930FB70F9333
:1000F0000027009362000093630000936400009364
:100100006500009360000093610000936900009314
:100110006A0000936B0000936C0000936D000093E5
:100120006E0000936F0000937000D0E0C1E710E212
:1001300009931A95E9F70F910FBFDF91CF911F91A6
:100140000F9118950F931F932F933F934F935F93A6
:10015000CF93DF93EF93FF930FB70F9303E802BFA3
:100160000091600003950093600029F40091610004
:1001700003950093610000916000083E71F40091C6
:100180006100033051F40027009360000093610088
:1001900000916200002309F092D080990DC0009177
:1001A0006700002361F00027009367000091620060
:1001B000002329F0B0D003C001E0009367008199CB
:1001C00027C000916800002331F1002700936800E8
:1001D000009162000023F9F4009165000023D9F03A
:1001E00010916300112341F411271093640011E072
:1001F00010936300B5D00FC0109164001395209147
:100200006500121708F0112710936400A9D003C0ED
:1002100001E00093680000916300002309F43CD0E2
:1002200000270BBB00916600003029F0013051F02F
:10023000023081F016C010916D00AED015BB11E0F8
:100240001BBB15C010916E00A7D01F7715BB12E025
:100250001BBB0DC010916F009FD015BB14E01BBBE2
:1002600006C01091700098D015BB18E01BBB009120
:1002700066000395043008F00027009366000F9194
:100280000FBFFF91EF91DF91CF915F914F913F9120
:100290002F911F910F9118950F9300916900009372
:1002A0006D0000916A0000936E0000916B00009356
:1002B0006F0000916C00009370000F9108950F93F0
:1002C00000916C0003950A3010F1002700936C0038
:1002D00000916B0003950630B8F0002700936B0087
:1002E00000916A0003950A3060F0002700936A00CD
:1002F0000091690003950A3008F000270093690017
:1003000008C000936A0005C000936B0002C0009310
:100310006C000F9108950F931F93CF93DF9300917B
:1003200065000830C0F4D0E0C1E7002319F024963E
:100330000A95FBCF10916900199310916A001993E7
:1003400010916B00199310916C0019930091650046
:10035000039500936500DF91CF911F910F91089550
:100360000F93CF93DF93D0E0C1E7009164000023A7
:1003700019F024960A95FBCF099100936D0009911D
:1003800000936E00099100936F0009910093700033
:10039000DF91CF910F9108950F93EF93FF93F3E0C7
:1003A000E2EBE10F0027F01F1491FF91EF910F9105
:1003B0000895C000F900A400B000990092008200E6
:0603C000F800800090002F
:00000001FF
